:0400000041EF00F0DC
:060008005A8256ED1CF0C7
:100018005A80D8CF03F0E8CF04F0E0CF05F0F2AA79
:1000280018EF00F01AEF00F039EF00F0F2A41FEF1C
:1000380000F021EF00F039EF00F08BB026EF00F070
:1000480029EF00F0010E2AEF00F0000EFF0A026E01
:100058008B500218FE0B02188B6E480ED76EE40EFA
:10006800D66EF2940001F34BF42B05C0E0FF04C0F8
:0E007800E8FF03C0D8FF5A901000E6EF1DF01D
:10080000005341542E204D4F444552414441200055
:100810005341542E204F5054494D412000534154D0
:100820002E205345564552412000535030323A0055
:10083000252E30326600494E46004E414E00696E0C
:1008400066006E616E006C6600250000000E0001FF
:100850008B6F000E8A6F6CC09CF06DC09DF06EC0F7
:100860009EF06FC09FF09FBF3AEF04F038EF04F0A6
:1008700050EF04F0000E8B6F010E8A6F9CC006F0E3
:100880009DC007F09EC008F09FC009F07DEC1DF0F0
:1008900006C09CF007C09DF008C09EF009C09FF004
:1008A000000E0001A36F000EA26FE9C08EF0EAC037
:1008B0008FF08A518B11D8A460EF04F062EF04F03E
:1008C00069EF04F058A467EF04F069EF04F083EFD8
:1008D00004F08A518B11D8A470EF04F072EF04F089
:1008E00078EF04F0000E776F2B0E766F7CEF04F03C
:1008F000000E776F2D0E766F76C000F1A24BA32B02
:100900008E07D8A08F079CC006F09DC007F09EC040
:1009100008F09FC009F0DBEC18F006040710D8A41B
:1009200094EF04F096EF04F0E0EF04F0BF0E000146
:10093000716FFF0E726F7051736F746B715173270B
:1009400072517423745107E11A0E735DD8B0ABEF86
:1009500004F0ADEF04F0BBEF04F0000EA225066E2C
:10096000010EA321076E360E086E080E096E28ECE4
:100970001CF0C7EF04F0000EA225066E010EA321A5
:10098000076E3E0E086E080E096E28EC1CF0000182
:10099000FD0E8E27FF0E8F236AC016F06BC017F076
:1009A000000E186E010E196E8EC01AF08FC01BF06B
:1009B0008CEC1AF016C06AF017C06BF02BEF0AF03F
:1009C0009CC006F09DC007F09EC008F09FC009F0D3
:1009D000DBEC18F006500710D8A4F1EF04F0F3EFA9
:1009E00004F026EF05F0BF0E0001716FFF0E726F6D
:1009F0007051736F746B71517327725174237451FA
:100A000007E11A0E735DD8B008EF05F00AEF05F0A4
:100A100018EF05F0000EA225066E010EA321076E49
:100A20003A0E086E080E096E28EC1CF0C7EF04F0B1
:100A3000000EA225066E010EA321076E420E086E5F
:100A4000080E096E28EC1CF0C7EF04F0000E000140
:100A5000A46F000EA56F800EA66F3F0EA76F000E4D
:100A6000A16F000EA06F9CC006F09DC007F09EC055
:100A700008F09FC009F0000E0A6E000E0B6E000E0B
:100A80000C6E000E0D6EA2EC1BF0D8B04AEF05F014
:100A90004CEF05F0CFEF05F06BEF05F0A4C014F0BC
:100AA000A5C015F0A6C016F0A7C017F0000E186E6E
:100AB000000E196E200E1A6E410E1B6EA9EC0EF080
:100AC00014C0A4F015C0A5F016C0A6F017C0A7F07A
:100AD0000001A04BA12B9CC02DF09DC02EF09EC00C
:100AE0002FF09FC030F0000E186E000E196E200E11
:100AF0001A6E410E1B6EA4C014F0A5C015F0A6C05E
:100B000016F0A7C017F0A9EC0EF014C031F015C014
:100B100032F016C033F017C034F0D8EC17F0D8B06C
:100B200094EF05F096EF05F04EEF05F0B6EF05F007
:100B3000A4C02DF0A5C02EF0A6C02FF0A7C030F0A5
:100B4000000E316E000E326E200E336E410E346E8A
:100B5000BEEC10F02DC0A4F02EC0A5F02FC0A6F062
:100B600030C0A7F00001A007D8A0A1079CC02DF0BD
:100B70009DC02EF09EC02FF09FC030F0A4C031F079
:100B8000A5C032F0A6C033F0A7C034F0D8EC17F0FF
:100B9000D8A0CDEF05F0CFEF05F098EF05F070C0CD
:100BA0000CF00D6A1CEC1DF00C500001916F91C00F
:100BB00090F0670E9119D8A4E0EF05F0E2EF05F090
:100BC00008EF06F0EB51EC11D8A4E9EF05F0EBEFDC
:100BD00005F0EFEF05F0000EEC6F010EEB6FECBFD0
:100BE000FCEF05F0EC5106E1EB05D8B0FAEF05F0AB
:100BF000FCEF05F002EF06F0000E8D6F060E8C6F15
:100C000011EF06F0EBC08CF0ECC08DF011EF06F0A8
:100C1000ECBF0DEF06F00FEF06F0FCEF05F002EF72
:100C200006F0670E9119D8A418EF06F01AEF06F037
:100C300049EF06F0A1AF28EF06F0FC0EA05DFF0E15
:100C4000A159D8A026EF06F028EF06F047EF06F0EE
:100C5000FF0E716FFF0E726F8CC073F08DC074F059
:100C60007151732772517423A051735D7451800ABE
:100C7000756FA151800A7559D8A041EF06F043EF76
:100C800006F047EF06F0660E906F49EF06F0650E2E
:100C9000906F8CC082F08DC083F0670E9119D8A43C
:100CA00054EF06F056EF06F066EF06F0660E901968
:100CB000D8A45DEF06F05FEF06F068EF06F0A1BF85
:100CC00066EF06F064EF06F068EF06F0824B832BC8
:100CD000660E9019D8A46FEF06F071EF06F091EF51
:100CE00006F0A1BF78EF06F076EF06F084EF06F08D
:100CF000000EA46F000EA56F800EA66F3F0EA76FAB
:100D0000000EA16F000EA06F670E9119D8B48BEF83
:100D100006F08DEF06F091EF06F0A0518227A15169
:100D20008323000E9B6F000E9A6F9CC092F09DC0B3
:100D300093F09EC094F09FC095F0A4C084F0A5C02D
:100D400085F0A6C086F0A7C087F022EF07F092C01A
:100D50002DF093C02EF094C02FF095C030F0A4C0B9
:100D600031F0A5C032F0A6C033F0A7C034F0BEEC1D
:100D700010F02DC046F02EC047F02FC048F030C014
:100D800049F03CEC14F046C096F047C097F048C0DC
:100D900098F049C099F096C006F097C007F098C047
:100DA00008F099C009F055EC17F006C088F007C0AC
:100DB00089F092C060F093C061F094C062F095C079
:100DC00063F0A4C018F0A5C019F0A6C01AF0A7C01F
:100DD0001BF096C014F097C015F098C016F099C09B
:100DE00017F0A9EC0EF014C064F015C065F016C041
:100DF00066F017C067F0F8EC1CF060C092F061C0BC
:100E000093F062C094F063C095F0A4C02DF0A5C02B
:100E10002EF0A6C02FF0A7C030F0000E316E000EED
:100E2000326E200E336E410E346EBEEC10F02DC0CB
:100E3000A4F02EC0A5F02FC0A6F030C0A7F000018E
:100E40009A4B9B2B82519A5D9B51800A716F835103
:100E5000800A7159D8A02FEF07F031EF07F0A7EF04
:100E600006F0A4C014F0A5C015F0A6C016F0A7C0E7
:100E700017F0000E186E000E196EA00E1A6E400EBE
:100E80001B6EA9EC0EF014C096F015C097F016C0BA
:100E900098F017C099F092C02DF093C02EF094C036
:100EA0002FF095C030F096C031F097C032F098C066
:100EB00033F099C034F0D8EC17F0D8B062EF07F0F7
:100EC00064EF07F06FEF07F0000E0001966F000E61
:100ED000976F000E986F000E996F98EF07F092C011
:100EE00006F093C007F094C008F095C009F096C0D2
:100EF0000AF097C00BF098C00CF099C00DF0A2EC6E
:100F00001BF0D8A086EF07F088EF07F098EF07F006
:100F1000000188B18EEF07F090EF07F098EF07F02F
:100F2000000E966F000E976F000E986F000E996F6F
:100F30009CC046F09DC047F09EC048F09FC049F05D
:100F400096C04AF097C04BF098C04CF099C04DF055
:100F50002CEC0AF046C092F047C093F048C094F0E1
:100F600049C095F092C02DF093C02EF094C02FF0A0
:100F700095C030F0000E186E000E196E200E1A6E1D
:100F8000410E1B6E84C014F085C015F086C016F0AB
:100F900087C017F0A9EC0EF014C031F015C032F084
:100FA00016C033F017C034F0D8EC17F0D8A0DBEF40
:100FB00007F0DDEF07F006EF08F00001A04BA12BD2
:100FC00084C014F085C015F086C016F087C017F0F5
:100FD000000E186E000E196E200E1A6E410E1B6E5A
:100FE000A9EC0EF014C084F015C085F016C086F090
:100FF00017C087F0660E00019019D8A402EF08F020
:1010000004EF08F006EF08F0824B832B84C0A4F0B5
:1010100085C0A5F086C0A6F087C0A7F0650E0001C8
:101020009019D8B416EF08F018EF08F01EEF08F08A
:10103000A0C080F0A1C081F022EF08F0000E816F07
:10104000000E806F000E7F6F000E7E6F000E7D6FB2
:10105000000E7C6F000E9B6F000E9A6F1EEF09F062
:1010600092C02DF093C02EF094C02FF095C030F0B8
:10107000A4C031F0A5C032F0A6C033F0A7C034F050
:10108000BEEC10F02DC046F02EC047F02FC048F047
:1010900030C049F03CEC14F046C096F047C097F0E1
:1010A00048C098F049C099F096C006F097C007F084
:1010B00098C008F099C009F055EC17F006C088F008
:1010C00007C089F058B867EF08F069EF08F087EFBC
:1010D00008F0000188518911D8A471EF08F073EF6E
:1010E00008F087EF08F0670E9119D8A47AEF08F09E
:1010F0007CEF08F087EF08F081BF83EF08F081EF05
:1011000008F087EF08F07C4B7D2BD2EF08F0000150
:101110007E517F11D8A48FEF08F091EF08F0BBEF5C
:1011200008F081BF98EF08F096EF08F0BBEF08F0E9
:10113000000EA225D96E010EA321DA6E2E0EDF6EEF
:10114000A24BA32B8E07D8A08F07000E7F6F010E36
:101150007E6FBBEF08F0000EA225D96E010EA32111
:10116000DA6E300EDF6EA24BA32B8E07D8A08F074E
:101170007C07D8A07D077C517D11D8A4C2EF08F070
:10118000C4EF08F0ABEF08F0000EA225D96E010EF7
:10119000A321DA6E8851300FDF6EA24BA32B8E078E
:1011A000D8A08F0792C060F093C061F094C062F045
:1011B00095C063F0A4C018F0A5C019F0A6C01AF03D
:1011C000A7C01BF096C014F097C015F098C016F099
:1011D00099C017F0A9EC0EF014C064F015C065F0CA
:1011E00016C066F017C067F0F8EC1CF060C092F013
:1011F00061C093F062C094F063C095F0A4C02DF07C
:10120000A5C02EF0A6C02FF0A7C030F0000E316EA2
:10121000000E326E200E336E410E346EBEEC10F0B6
:101220002DC0A4F02EC0A5F02FC0A6F030C0A7F0AE
:1012300000018007D8A081079A4B9B2B82519A5DB1
:101240009B51800A716F8351800A7159D8B02BEF7E
:1012500009F02DEF09F03BEF09F0A3BF39EF09F0DA
:10126000A35109E14B0EA25DD8A039EF09F03BEF85
:1012700009F030EF08F07E517F11D8A442EF09F059
:1012800044EF09F055EF09F058A849EF09F04BEF8A
:1012900009F055EF09F0000EA225D96E010EA32129
:1012A000DA6E2E0EDF6EA24BA32B000EA225D96E96
:1012B000010EA321DA6E000EDF6E650E9019D8A420
:1012C00064EF09F066EF09F0CCEF04F0000E9B6FBD
:1012D0004F0E9A6F000E9A25D96E010E9B21DA6E81
:1012E000000EDF6E000E8B6F000E8A6FA1BF7DEFC8
:1012F00009F07BEF09F085EF09F0000E8B6F010E0E
:101300008A6FA06DA11FD8B0A12B000E8D6F020EA9
:101310008C6FB6EF09F09A07D8A09B07000E9A25AC
:10132000D96E010E9B21DA6EA0C006F0A1C007F0B5
:10133000000E096E0A0E086E4AEC1BF00650300FC4
:10134000DF6EA0C006F0A1C007F0000E096E0A0E05
:10135000086E2AEC1AF006C0A0F007C0A1F0000148
:101360008C07D8A08D078E07D8A08F07A051A11198
:10137000D8A4BDEF09F0BFEF09F08BEF09F08DBFE6
:10138000CCEF09F08D5106E18C05D8B0CAEF09F019
:10139000CCEF09F08BEF09F09A07D8A09B078A5190
:1013A0008B11D8A4D6EF09F0D8EF09F0DEEF09F0E1
:1013B000000E796F2B0E786FE2EF09F0000E796F57
:1013C0002D0E786F000E9A25D96E010E9B21DA6ED4
:1013D00078C0DFFF8E07D8A08F079A07D8A09B0799
:1013E000BF0E716FFF0E726F7051736F746B71511E
:1013F000732772517423745109E11A0E735DD8A0DA
:1014000004EF0AF006EF0AF00CEF0AF0000E7B6F13
:10141000650E7A6F10EF0AF0000E7B6F450E7A6F43
:10142000000E9A25D96E010E9B21DA6E7AC0DFFF7D
:101430008E07D8A08F07000EA225066E010EA321ED
:10144000076E000E9A25086E010E9B21096E28EC8E
:101450001CF0CCEF04F012004950800B526E495042
:101460004924546E48AE37EF0AF039EF0AF03AEFEC
:101470000AF054805450D8B440EF0AF042EF0AF01A
:1014800057EF0AF05428D8A448EF0AF04AEF0AF0C0
:1014900052EF0AF0000E466E000E476E000E486EC8
:1014A000000E496E488E000E496E5FEF0AF0000E86
:1014B000466E000E476E000E486E000E496E4D508F
:1014C000800B536E52505318D8B469EF0AF06BEF8B
:1014D0000AF06CEF0AF0528C4D504D24536E4CAE16
:1014E00074EF0AF076EF0AF077EF0AF0538053506A
:1014F000D8B47DEF0AF07FEF0AF094EF0AF053289A
:10150000D8A485EF0AF087EF0AF08FEF0AF0000EFB
:101510004A6E000E4B6E000E4C6E000E4D6E4C8EE1
:10152000000E4D6E9CEF0AF0000E4A6E000E4B6EE0
:10153000000E4C6E000E4D6E5450535CD8B0A3EFAD
:101540000AF0A5EF0AF0CCEF0AF052ACAAEF0AF0CD
:10155000ACEF0AF0AEEF0AF0800E521A54C055F00C
:1015600053C054F055C053F046C055F04AC046F041
:1015700055C04AF047C055F04BC047F055C04BF03E
:1015800048C055F04CC048F055C04CF049C055F02B
:101590004DC049F055C04DF0000E556E545053C02B
:1015A0004EF04F6A4E5E000E4F5A4FBEE1EF0AF00A
:1015B0004F5009E11A0E4E5CD8A0E1EF0AF0E3EFBC
:1015C0000AF01AEF0BF04650471048104910D8A403
:1015D000ECEF0AF0EFEF0AF0010EF0EF0AF0000E68
:1015E000556E000E466E000E476E000E486E000EE1
:1015F000496E53C054F023EF0BF055A002EF0BF0EF
:1016000004EF0BF00AEF0BF0D89055300109556E3E
:101610000CEF0BF0D890553246A011EF0BF013EF02
:101620000BF014EF0BF0558E4934493248324732F3
:101630004632542A5350545CD8A021EF0BF023EFCC
:101640000BF0FDEF0AF052BC28EF0BF02AEF0BF085
:101650006AEF0BF05450D8A430EF0BF032EF0BF0E0
:101660003CEF0BF0000E466E000E476E000E486E0B
:10167000000E496E8BEF0CF04A5046264B50472225
:101680004C5048224D50492249A049EF0BF04BEFF6
:101690000BF0F7EF0BF055A050EF0BF052EF0BF003
:1016A00058EF0BF0D89055300109556E5AEF0BF0FA
:1016B000D890553246A05FEF0BF061EF0BF062EF70
:1016C0000BF0558E49344932483247324632542A5B
:1016D000F7EF0BF04A50465C4B5047584C50485877
:1016E0004950800A4E6E4D50800A4E58D8B07BEF5C
:1016F0000BF07DEF0BF0A8EF0BF046504A5C4E6EFE
:1017000047504B584F6E48504C58506E49504D58AA
:10171000516EFF0E4E24466EFF0E4F20476EFF0E99
:101720005020486EFF0E5120496E800E521A556CA3
:101730005550D8A49EEF0BF0A0EF0BF0B0EF0BF0DC
:10174000010E4626000E472248224922B0EF0BF038
:101750004A50465E4B50475A4C50485A4D50495A91
:101760004650471048104910D8A4B9EF0BF0BBEF12
:101770000BF0F0EF0BF05550D8A4C1EF0BF0C3EF16
:101780000BF0F0EF0BF0000E466E000E476E000EF1
:10179000486E000E496E8BEF0CF0D89046364736F7
:1017A0004836493655AED7EF0BF0D9EF0BF0DAEFEC
:1017B0000BF0468055A0DFEF0BF0E1EF0BF0E5EF0B
:1017C0000BF0D8805536E7EF0BF0D89055365450D3
:1017D000D8B4EDEF0BF0EFEF0BF0F0EF0BF0540699
:1017E00048AEF5EF0BF0F7EF0BF0CDEF0BF0000E7E
:1017F000536E55AEFEEF0BF000EF0CF018EF0CF04F
:1018000055C04EF07F0E4E16D8B409EF0CF00BEF1A
:101810000CF00FEF0CF0010E536E18EF0CF046A019
:1018200014EF0CF016EF0CF018EF0CF00BEF0CF0BF
:101830005350D8B41EEF0CF020EF0CF04BEF0CF02F
:10184000010E4626000E47224822492249A02BEFCE
:101850000CF02DEF0CF04BEF0CF046C04EF047C0F3
:101860004FF048C050F049C051F05134513250321D
:101870004F324E324EC046F04FC047F050C048F095
:1018800051C049F05428D8B448EF0CF04AEF0CF09E
:101890004BEF0CF0542A5428D8B451EF0CF053EF0E
:1018A0000CF05BEF0CF05450D8A459EF0CF05BEF48
:1018B0000CF06DEF0CF0000E466E000E476E000E41
:1018C000486E000E496E5450D8A469EF0CF06BEFCF
:1018D0000CF06DEF0CF0000E526E54A072EF0CF095
:1018E00074EF0CF077EF0CF0488E78EF0CF0489E18
:1018F000D8905430496E52AE80EF0CF082EF0CF06D
:1019000083EF0CF0498E46C046F047C047F048C010
:1019100048F049C049F01200AAC0D9FFABC0DAFFB5
:10192000DECFF6FFDDCFF7FF0800F550250AD8A47B
:101930009CEF0CF09EEF0CF08DEF0EF0AAC0D9FFDB
:10194000ABC0DAFFDE2A000EDD22000E0001EA6FD6
:10195000000EE96FE9C058F0EAC059F0EB69EC6994
:10196000AAC0D9FFABC0DAFFDECFF6FFDDCFF7FFAD
:101970000800F5502E0AD8A4C0EF0CF0C2EF0CF00E
:1019800033EF0DF0000EEC6F000EEB6FAAC0D9FF25
:10199000ABC0DAFFDE2A000EDD22AAC0D9FFABC041
:1019A000DAFFDECFF6FFDDCFF7FF0800F5502A0A99
:1019B000D8A4DDEF0CF0DFEF0CF0FCEF0CF0AAC0C8
:1019C000D9FFABC0DAFFDE2A000EDD22ACC0D9FFA2
:1019D000ADC0DAFFDFCFAEF0020EDE26DFCFAFF014
:1019E000000EDD22AEC0D9FFAFC0DAFFDECFEBF0D4
:1019F000DDCFECF033EF0DF0AAC0D9FFABC0DAFFBA
:101A0000DECF0DF0DDCF0EF021EC16F00DC0EBF0C7
:101A10000EC0ECF013EF0DF0AAC0D9FFABC0DAFF97
:101A2000DE2A000EDD22D00E0001AE6FFF0EAF6F7A
:101A3000AAC0D9FFABC0DAFFDECFF6FFDDCFF7FFDC
:101A40000800F550B06FB16BAE51B027AF51B12364
:101A5000B15109E10A0EB05DD8A031EF0DF033EFBE
:101A60000DF00CEF0DF0AAC0D9FFABC0DAFFDECF4E
:101A7000F6FFDDCFF7FF0800F5500C6E0D6A1CEC89
:101A80001DF00C500001B66FB651D8B44AEF0DF0FE
:101A90004CEF0DF086EF0DF0AAC0D9FFABC0DAFF16
:101AA000DECFAEF0DDCFAFF0010EAE27000EAF23DC
:101AB000AEC0F6FFAFC0F7FF0800F5500C6E0D6A20
:101AC0001CEC1DF00C500001B76FB751D8B46BEF90
:101AD0000DF06DEF0DF086EF0DF0AAC0D9FFABC091
:101AE000DAFFDECFAEF0DDCFAFF0020EAE27000E94
:101AF000AF23AEC0F6FFAFC0F7FF0800F5500C6E85
:101B00000D6A1CEC1DF00C500001B86F660EB61982
:101B1000D8A48DEF0DF08FEF0DF0CFEF0DF0AAC030
:101B2000D9FFABC0DAFFDECFF6FFDDCFF7FF08004D
:101B3000F5CFB9F0AAC0D9FFABC0DAFFDE2A000E9C
:101B4000DD22ACC0D9FFADC0DAFFDFCFAEF0040EAE
:101B5000DE26DFCFAFF0000EDD22AEC0D9FFAFC072
:101B6000DAFFDECFB2F0DECFB3F0DECFB4F0DECFFF
:101B7000B5F0A8C06AF0A9C06BF0B2C06CF0B3C0F9
:101B80006DF0B4C06EF0B5C06FF0B9C070F026EC67
:101B900004F06AC0A8F06BC0A9F0A8EF0EF0B60E72
:101BA000066E000E076E460E086E080E096E000ED9
:101BB0000B6E020E0A6E5AEC19F006500710D8A4EC
:101BC000E4EF0DF0E6EF0DF055EF0EF0AAC0D9FFEF
:101BD000ABC0DAFFDECFAEF0DDCFAFF0010E00011B
:101BE000AE27000EAF23AEC0F6FFAFC0F7FF080070
:101BF000F5CFB9F0BF0EAE6FFF0EAF6FAAC0D9FF21
:101C0000ABC0DAFFDECFF6FFDDCFF7FF0800F550FF
:101C1000B06FB16BAE51B027AF51B123B15107E1F5
:101C20001A0EB05DD8B017EF0EF019EF0EF033EFCB
:101C30000EF0ACC0D9FFADC0DAFFDFCFAEF0040EBE
:101C4000DE26DFCFAFF0000EDD22AEC0D9FFAFC081
:101C5000DAFFDECFB2F0DECFB3F0DECFB4F0DECF0E
:101C6000B5F04BEF0EF0ACC0D9FFADC0DAFFDFCF5F
:101C7000AEF0040EDE26DFCFAFF0000EDD22AEC0E8
:101C8000D9FFAFC0DAFFDECFB2F0DECFB3F0DECFE8
:101C9000B4F0DECFB5F0020EAAC0D9FFABC0DAFFB8
:101CA000DE26000EDD22B9EF0DF0AAC0D9FFABC0D1
:101CB000DAFFDECFF6FFDDCFF7FF0800F550250A8B
:101CC000D8A465EF0EF067EF0EF07FEF0EF0AAC01C
:101CD000D9FFABC0DAFFDE2A000EDD22000E076E50
:101CE000250E066EA8C008F0A9C009F0C5EC19F0D1
:101CF000000E0001A96F010EA86FA8EF0EF0AAC098
:101D0000D9FFABC0DAFFDE2A000EDD22000E000193
:101D1000A96F000EA86FA8EF0EF0AAC0D9FFABC044
:101D2000DAFFDECFF6FFDDCFF7FF0800F550066ED5
:101D3000076AA8C008F0A9C009F0C5EC19F0AAC04C
:101D4000D9FFABC0DAFFDE2A000EDD2278EF0EF0FD
:101D500012001750800B206E17501724266E16AEF7
:101D6000B4EF0EF0B6EF0EF0B7EF0EF0268026506F
:101D7000D8B4BDEF0EF0BFEF0EF0D2EF0EF0262874
:101D8000D8A4C5EF0EF0C7EF0EF0CFEF0EF0000EA7
:101D9000146E000E156E000E166E000E176E168E67
:101DA000DAEF0EF0000E146E000E156E000E166EB9
:101DB000000E176E1B50800B201A1B501B24216E27
:101DC0001AAEE5EF0EF0E7EF0EF0E8EF0EF021802F
:101DD0002150D8B4EEEF0EF0F0EF0EF003EF0FF05D
:101DE0002128D8A4F6EF0EF0F8EF0EF000EF0FF078
:101DF000000E186E000E196E000E1A6E000E1B6E8D
:101E00001A8E0BEF0FF0000E186E000E196E000EFA
:101E10001A6E000E1B6E2150D8B411EF0FF013EFA5
:101E20000FF01BEF0FF02650D8A419EF0FF01BEFA7
:101E30000FF025EF0FF0000E146E000E156E000E61
:101E4000166E000E176EBDEF10F01A501402F3CF8D
:101E50002BF0F4CF2CF02B50226E236A246A256AD3
:101E60002C50276E286A296A2A6A19501502F3CF66
:101E70002BF0F4CF2CF02B502226000E232224220C
:101E800025222C502726000E282229222A221850EB
:101E90001602F3CF2BF0F4CF2CF02B502226000E9D
:101EA0002322242225222C502726000E28222922F4
:101EB0002A2224C025F023C024F022C023F0226A65
:101EC00018501502F3CF2BF0F4CF2CF02B50222614
:101ED0002C502322000E2422000E25221950140219
:101EE000F3CF2BF0F4CF2CF02B5022262C502322B2
:101EF000000E2422000E252224C025F023C024F049
:101F000022C023F0226A18501402F3CF2BF0F4CF32
:101F10002CF02B5022262C502322000E2422000EBF
:101F200025221A501502F3CF2BF0F4CF2CF02B50B2
:101F300027262C502822000E2922000E2A22195072
:101F40001602F3CF2BF0F4CF2CF02B5027262C5079
:101F50002822000E2922000E2A221A501602F3CF40
:101F60002BF0F4CF2CF02B501C6E2C501D6E1E6AE3
:101F70001F6A1EC01FF01DC01EF01CC01DF01C6A91
:101F80001C5027261D5028221E5029221F502A226D
:101F900022C01CF023C01DF024C01EF025C01FF07D
:101FA000190ED8EF0FF0D8901F321E321D321C329E
:101FB000E82ED3EF0FF01C5027261D5028221E506C
:101FC00029221F502A2224C025F023C024F022C039
:101FD00023F0226A215026C01CF01D6A1C26000E28
:101FE0001D22820E1C242B6EFF0E1D202C6E0EEF68
:101FF00010F0D8902736283629362A3625AE03EF3A
:1020000010F005EF10F006EF10F02780D890223680
:102010002336243625362B06D8A02C0629AE13EFFE
:1020200010F015EF10F0F9EF0FF0000E216E25AE55
:102030001CEF10F01EEF10F042EF10F0FF0E221414
:102040001C6EFF0E23141D6EFF0E24141E6E7F0ED9
:1020500025141F6E1C501D101E101F10D8B433EF16
:1020600010F035EF10F039EF10F0010E216E42EF55
:1020700010F027A03EEF10F040EF10F042EF10F00C
:1020800035EF10F02150D8B448EF10F04AEF10F0BF
:102090006EEF10F0010E2726000E282229222A2298
:1020A0002AA055EF10F057EF10F06EEF10F027C098
:1020B0001CF028C01DF029C01EF02AC01FF01F34DC
:1020C0001F321E321D321C321CC027F01DC028F0EA
:1020D0001EC029F01FC02AF02B4A2C2A2CBE79EFF3
:1020E00010F02C5008E12B28D8A079EF10F07BEFEE
:1020F00010F085EF10F0000E276E000E286E800E97
:10210000296E7F0E2A6EB3EF10F02CBE92EF10F006
:102110002C5006E12B04D8B090EF10F092EF10F0A5
:102120009EEF10F0000E276E000E286E000E296E36
:10213000000E2A6E000E206EB3EF10F02BC026F0BA
:10214000FF0E2716FF0E28167F0E2916000E2A16E0
:1021500026A0ADEF10F0AFEF10F0B0EF10F0298E29
:10216000D89026302A6E20502A1227C014F028C09A
:1021700015F029C016F02AC017F012003050800B5D
:102180003D6E30503024446E2FAEC9EF10F0CBEFCF
:1021900010F0CCEF10F044804450D8B4D2EF10F0DF
:1021A000D4EF10F0E9EF10F04428D8A4DAEF10F0E3
:1021B000DCEF10F0E4EF10F0000E2D6E000E2E6E2E
:1021C000000E2F6E000E306E2F8E000E306EF1EF6F
:1021D00010F0000E2D6E000E2E6E000E2F6E000EF3
:1021E000306E3450800B3D1A34503424456E33AE7B
:1021F000FCEF10F0FEEF10F0FFEF10F045804550BF
:10220000D8B405EF11F007EF11F01CEF11F04528DD
:10221000D8A40DEF11F00FEF11F017EF11F0000E31
:10222000316E000E326E000E336E000E346E338E41
:10223000000E346E24EF11F0000E316E000E326E7F
:10224000000E336E000E346E3150321033103410E5
:10225000D8A42DEF11F02FEF11F047EF11F0000E81
:102260002D6E000E2E6E000E2F6E000E306E800E44
:102270002F127F0E30123D5030122DC02DF02EC087
:102280002EF02FC02FF030C030F08AEF12F0445003
:10229000D8A44DEF11F04FEF11F059EF11F0000EEF
:1022A0002D6E000E2E6E000E2F6E000E306E8AEF19
:1022B00012F0455044C035F0366A355E000E365A8D
:1022C0007F0E35243E6E000E36203F6E2DC039F055
:1022D0002EC03AF02FC03BF030C03CF0000E2D6E07
:1022E000000E2E6E000E2F6E000E306E000E406E31
:1022F000000E416E000E426E000E436E000E456EE3
:10230000BAEF11F04550D8B488EF11F08AEF11F010
:10231000A1EF11F0D89039363A363B363C36D8909A
:102320002D362E362F36303643AE99EF11F09BEF17
:1023300011F09CEF11F02D80D89040364136423696
:1023400043363150395C32503A5833503B58345050
:102350003C58D8A0AEEF11F0B0EF11F0B9EF11F08A
:10236000438C3150395E32503A5A33503B5A3450D4
:102370003C5A452A190E4564C0EF11F0C2EF11F026
:1023800082EF11F039503A103B103C10D8B4CBEF2B
:1023900011F0CDEF11F0E5EF11F04080E5EF11F015
:1023A000D8902D362E362F36303643AEDAEF11F078
:1023B000DCEF11F0DDEF11F02D80D8904036413682
:1023C000423643363E06D8A03F062FAEEAEF11F064
:1023D000ECEF11F0D0EF11F0000E456E43AEF3EFCD
:1023E00011F0F5EF11F019EF12F0FF0E4014356EF9
:1023F000FF0E4114366EFF0E4214376E7F0E4314EB
:10240000386E3550361037103810D8B40AEF12F045
:102410000CEF12F010EF12F0010E456E19EF12F0F2
:102420002DA015EF12F017EF12F019EF12F00CEFCC
:1024300012F04550D8B41FEF12F021EF12F045EF23
:1024400012F0010E2D26000E2E222F22302230A057
:102450002CEF12F02EEF12F045EF12F02DC035F0F8
:102460002EC036F02FC037F030C038F03834383254
:1024700037323632353235C02DF036C02EF037C007
:102480002FF038C030F03E4A3F2A3FBE50EF12F0E6
:102490003F5008E13E28D8A050EF12F052EF12F062
:1024A0005DEF12F0000E3F6E3E68000E2D6E000EC6
:1024B0002E6E000E2F6E000E306E3FBE6AEF12F0D1
:1024C0003F5006E13E04D8B068EF12F06AEF12F018
:1024D00078EF12F0000E3F6E000E3E6E000E2D6E75
:1024E000000E2E6E000E2F6E000E306E000E3D6E32
:1024F0003EC044F044A07FEF12F081EF12F084EF71
:1025000012F02F8E85EF12F02F9ED8904430306E4F
:102510003BEF11F012009282928494908B909394EE
:102520008A9494928B9293968A9682EC1EF08BEC0E
:102530001EF02DEC1EF088EC1EF064EC1EF057EC43
:102540001EF0CCEC16F00EEC1EF0000E106E2A0EF3
:10255000116E080E126E000E5AEC18F0000ED2EC3E
:102560001CF006C0EFF007C0F0F0000E316E000E58
:10257000326E800E336E440E346E0A0E186ED70E15
:10258000196EA30E1A6EBE0E1B6EEFC006F0F0C0E1
:1025900007F0086A096A000E47EC15F006C014F04F
:1025A00007C015F008C016F009C017F0A9EC0EF02E
:1025B00014C02DF015C02EF016C02FF017C030F04B
:1025C000BEEC10F02DC046F02EC047F02FC048F0F2
:1025D00030C049F07B0E4A6E140E4B6E6E0E4C6E80
:1025E0003F0E4D6E2CEC0AF046C0F9F047C0FAF0F1
:1025F00048C0FBF049C0FCF0FE0E186ED40E196EF8
:10260000380E1A6EC20E1B6EF9C014F0FAC015F027
:10261000FBC016F0FCC017F0A9EC0EF014C046F099
:1026200015C047F016C048F017C049F0AE0E4A6E0C
:10263000C70E4B6EFF0E4C6E420E4D6E2CEC0AF028
:1026400046C0E3F047C0E4F048C0E5F049C0E6F01A
:10265000500E0001C06F010EC16F300EC26F080E28
:10266000C36FE3C0C4F0E4C0C5F0E5C0C6F0E6C087
:10267000C7F080EC1CF00001F4BF48EF13F0F451F8
:1026800009E1050EF35DD8A048EF13F04AEF13F00F
:10269000E0EF13F08A84000EF46F000EF36F060E65
:1026A000106E500E116E010E126E000E5AEC18F0E4
:1026B0000B0E106E490E116E080E126E000E5AECC3
:1026C00018F0000E2D6E000E2E6EB40E2F6E420E00
:1026D000306EE3C031F0E4C032F0E5C033F0E6C064
:1026E00034F0D8EC17F0D8B078EF13F07AEF13F09D
:1026F00083EF13F0000E106E100E116E080E126EA6
:10270000010E5AEC18F0000E2D6E000E2E6EAA0E61
:102710002F6E420E306EE3C031F0E4C032F0E5C0FF
:1027200033F0E6C034F0D8EC17F0D8B09AEF13F0DD
:102730009CEF13F0BEEF13F0E3C02DF0E4C02EF0D9
:10274000E5C02FF0E6C030F0000E316E000E326EA4
:10275000B40E336E420E346ED8EC17F0D8B0B3EF2F
:1027600013F0B5EF13F0BEEF13F0000E106E010E74
:10277000116E080E126E010E5AEC18F0E3C02DF027
:10278000E4C02EF0E5C02FF0E6C030F0000E316E50
:10279000000E326EAA0E336E420E346ED8EC17F075
:1027A000D8B0D5EF13F0D7EF13F0E0EF13F0000E31
:1027B000106E1D0E116E080E126E010E5AEC18F0FE
:1027C000000E80B2010E0001F76FF851D8A4EBEFB4
:1027D00013F0EDEF13F0FAEF13F0F751D8B4F3EF75
:1027E00013F0F5EF13F0FAEF13F08A86000EEE6F98
:1027F000010EED6FF7C0F8F0F2BF08EF14F0F251E0
:1028000009E1020EF15DD8A008EF14F00AEF14F010
:102810002AEF14F0ED05EE11D8A411EF14F013EF28
:1028200014F02AEF14F08AB618EF14F01BEF14F02E
:10283000010E1CEF14F0000EFF0ADA6FDA47DA47D8
:10284000DA478A50DA19F70BDA198A6E000EF26F3E
:10285000000EF16F000E80B4010EF56FF551D8B483
:1028600034EF14F036EF14F0AEEF12F08A948A963B
:10287000AEEF12F041EF00F0DBC066F0DCC067F0B5
:10288000DDC068F0DEC069F046C066F047C067F0A2
:1028900048C068F049C069F0810E4A6EFF0E4B6E69
:1028A00066C04CF067C04DF068C04EF069C04FF094
:1028B000180E60EF14F0D8904F324E324D324C3239
:1028C000E82E5BEF14F04C504A240001646F000EB8
:1028D0004B20656F65BF76EF14F0655109E1170E67
:1028E000645DD8A076EF14F078EF14F082EF14F066
:1028F00046C046F047C047F048C048F049C049F0DC
:1029000046EF15F065BF87EF14F089EF14F0FAEF8A
:1029100014F064C04AF0FF0E4B6EFF0E4C6E7F0E3B
:102920004D6E000E4E6E4A6698EF14F0A0EF14F054
:102930004E344E324D324C324B324A2E93EF14F01D
:102940004BC060F04CC061F04DC062F04EC063F00F
:102950000001605166154A6E615167154B6E6251F8
:1029600068154C6E635169154D6E4A504B104C10F2
:102970004D10D8A4BEEF14F0C0EF14F0C2EF14F065
:1029800078EF14F066C04AF067C04BF068C04CF0B6
:1029900069C04DF0200ED2EF14F0D8904D324C3279
:1029A0004B324A32E82ECDEF14F04A504B104C1007
:1029B0004D10D8B4DEEF14F0E0EF14F0E8EF14F0AF
:1029C000605166276151672362516823635169230F
:1029D000601D4A6E611D4B6E621D4C6E631D4D6E17
:1029E0004A5066174B5067174C5068174D5069177F
:1029F0003EEF15F066C04AF067C04BF068C04CF07F
:102A000069C04DF0200E0AEF15F0D8904D324C32CF
:102A10004B324A32E82E05EF15F04A504B104C105D
:102A20004D10D8A416EF15F018EF15F022EF15F0A1
:102A3000000E666F000E676F000E686F000E696F04
:102A40003EEF15F0D89066354A6E67354B6E6835A7
:102A50004C6E69354D6E4A504B104C104D10D8B429
:102A600034EF15F036EF15F03EEF15F0000E666FFF
:102A7000000E676F800E686FBF0E696F66C046F00C
:102A800067C047F068C048F069C049F012000E6E98
:102A90000E50D8B44EEF15F050EF15F072EF15F060
:102AA00009BE57EF15F055EF15F072EF15F006C09F
:102AB0000AF007C00BF008C00CF009C00DF00A1EA8
:102AC0000B1E0C1E0D1E0A2A000E0B220C220D22BC
:102AD0000AC010F00BC011F00CC012F00DC013F0C2
:102AE0007AEF15F006C010F007C011F008C012F020
:102AF00009C013F00650071008100910D8A483EF7E
:102B000015F085EF15F08FEF15F0000E066E000E34
:102B1000076E000E086E000E096E20EF16F0960E7E
:102B20000F6E99EF15F00F2AD8901332123211322E
:102B30001032000E10140A6E000E11140B6E000EEF
:102B400012140C6EFE0E13140D6E0A500B100C10A6
:102B50000D10D8A4AEEF15F0B0EF15F093EF15F00F
:102B6000BEEF15F00F2A010E1026000E11221222C0
:102B70001322D8901332123211321032000E101478
:102B80000A6E000E11140B6E000E12140C6EFF0E66
:102B900013140D6E0A500B100C100D10D8A4D3EFA7
:102BA00015F0D5EF15F0B2EF15F0DDEF15F00F06CB
:102BB000D890103611361236133612BEE2EF15F0E9
:102BC000E4EF15F0ECEF15F0020E0F60EAEF15F0F0
:102BD000ECEF15F0D7EF15F00FB0F1EF15F0F3EFC4
:102BE00015F0F4EF15F0129ED8900F320FC00AF0D6
:102BF0000B6A0C6A0D6A0AC00DF00C6A0B6A0A6A4D
:102C00000A5010120B5011120C5012120D501312C8
:102C10000E50D8B40EEF16F010EF16F018EF16F0B5
:102C200009BE17EF16F015EF16F018EF16F0138E19
:102C300010C006F011C007F012C008F013C009F070
:102C40001200000E166E000E156E000E146E000EB1
:102C5000136E2DEF16F00D4A0E2A0DC0F6FF0EC0B2
:102C6000F7FF0800F550200AD8B439EF16F03BEF13
:102C700016F02BEF16F0F70E0F6EFF0E106E0DC054
:102C8000F6FF0EC0F7FF0800F550116E126A0F50E4
:102C9000112610501222125009E1050E115CD8A025
:102CA00054EF16F056EF16F02BEF16F060EF16F01B
:102CB000000E146E010E136E0D4A0E2A95EF16F0DB
:102CC0000DC0F6FF0EC0F7FF0800F5500F6E106A3A
:102CD0001050000AD8B46FEF16F095EF16F00F50B1
:102CE0002B0AD8B45CEF16F0060AD8B458EF16F0E9
:102CF00095EF16F015C006F016C007F0000E096E2D
:102D00000A0E086EFBEC1DF00DC0F6FF0EC0F7FFBB
:102D10000800F550065E000E075A300E0624156EA8
:102D2000000E0720166E5CEF16F0D00E0F6EFF0E31
:102D3000106E0DC0F6FF0EC0F7FF0800F550116EC3
:102D4000126A0F50112610501222125009E10A0E79
:102D5000115CD8A0AEEF16F0B0EF16F07AEF16F0D7
:102D600013501410D8A4B7EF16F0B9EF16F0C7EF50
:102D700016F015C00FF016C010F00F1E101E0F4AEF
:102D8000102A0FC00DF010C00EF0CBEF16F015C0DA
:102D90000DF016C00EF0120079EC1EF0000E066E5B
:102DA0004E0ED0EC1DF0000E49EC1EF070EC1EF043
:102DB000620E106E660EE82EFED7102EFCD7030EA4
:102DC0000B6E000EEDEC1AF0210E106E760EE82E52
:102DD000FED7102EFCD700D0030E0B6E000EEDECCC
:102DE0001AF0210E106E760EE82EFED7102EFCD7AC
:102DF00000D0030E0B6E000EEDEC1AF0210E106EDB
:102E0000760EE82EFED7102EFCD700D0020E0B6EE9
:102E1000000EEDEC1AF0210E106E760EE82EFED7A5
:102E2000102EFCD700D0280E0E6E000E3BEC1EF0CC
:102E3000210E106E760EE82EFED7102EFCD700D095
:102E4000080E0E6E000E3BEC1EF0210E106E760E7C
:102E5000E82EFED7102EFCD700D0010E0E6E000E0D
:102E60003BEC1EF0210E106E760EE82EFED7102ED3
:102E7000FCD700D0060E0E6E000E3BEC1EF0210EAD
:102E8000106E760EE82EFED7102EFCD700D00F0E57
:102E90000E6E000E3BEC1EF0210E106E760EE82E2C
:102EA000FED7102EFCD700D01200083409340F6E64
:102EB0000F50D8A45EEF17F060EF17F06AEF17F02D
:102EC000000E066E000E076E000E086E000E096EF4
:102ED000D7EF17F006C00AF007C00BF008C00CF0DF
:102EE00009C00DF0200E7AEF17F0D8900D320C3299
:102EF0000B320A32E82E75EF17F00A500E6E088E6C
:102F0000FF0E0616FF0E0716FF0E0816000E091616
:102F1000960E0F5E0FBE91EF17F08FEF17F0A7EF31
:102F200017F00F50800A970FD8B099EF17F09BEF6A
:102F300017F09DEF17F060EF17F0D89009320832C4
:102F4000073206320F3E9DEF17F0BFEF17F01F0E4E
:102F50000F64ADEF17F0AFEF17F0B7EF17F060EFBA
:102F600017F0D89006360736083609360F060F5088
:102F7000D8A4BDEF17F0BFEF17F0B1EF17F00E5068
:102F8000D8B4C5EF17F0C7EF17F0CFEF17F0091E51
:102F9000081E071E066C000E07220822092206C022
:102FA00006F007C007F008C008F009C009F01200D9
:102FB000000E2D14356E000E2E14366E800E2F145A
:102FC000376E7F0E3014386E35503610371038108B
:102FD000D8A4EDEF17F0EFEF17F0F7EF17F0000EB2
:102FE0002D6E000E2E6E000E2F6E000E306E000E37
:102FF0003114356E000E3214366E800E3314376E77
:103000007F0E3414386E3550361037103810D8A46F
:103010000CEF18F00EEF18F016EF18F0000E316EEE
:10302000000E326E000E336E000E346E30AE1BEFAB
:1030300018F01DEF18F026EF18F02D6C2E1ED8B0EA
:103040002E2A2F1ED8B02F2A800E305634AE2BEFEA
:1030500018F02DEF18F036EF18F0316C321ED8B0A2
:10306000322A331ED8B0332A800E3456000E2D1A61
:10307000000E2E1A000E2F1A800E301A000E311A72
:10308000000E321A000E331A800E341A31502D5CA5
:1030900032502E5833502F5834503058D8B053EF48
:1030A00018F055EF18F058EF18F0D89059EF18F0C5
:1030B000D8801200156E8FEF18F01050800F106E30
:1030C00010C00EF0000E3BEC1EF0C2EF18F01050D6
:1030D000C00F106E10C00EF0000E3BEC1EF0C2EFE1
:1030E00018F01050940F106E10C00EF0000E3BEC54
:1030F0001EF0C2EF18F01050D40F106E10C00EF07A
:10310000000E3BEC1EF0C2EF18F01050800F106E56
:1031100010C00EF0000E3BEC1EF0C2EF18F0155080
:10312000136E146A1450000AD8B499EF18F085EFA2
:1031300018F01350000AD8B45DEF18F0010AD8B4A3
:1031400067EF18F0030AD8B471EF18F0010AD8B489
:103150007BEF18F085EF18F011C0F6FF12C0F7FFF3
:10316000F86A070EF76403D00800F55005D0F6CFD3
:10317000E1FFF7CFE2FFE7500E6E010E3BEC1EF0D1
:10318000114A122A11C0F6FF12C0F7FFF86A070EA3
:10319000F76403D00800F55005D0F6CFE1FFF7CF74
:1031A000E2FFE7500009D8A4D8EF18F0DAEF18F0E2
:1031B000ACEF18F01200DFC010F0E0C011F0E1C079
:1031C00012F0E2C013F006C010F007C011F008C002
:1031D00012F009C013F010C00AF011C00BF012C0B9
:1031E0000CF013C00DF0180EFBEF18F0D8900D3254
:1031F0000C320B320A32E82EF6EF18F00A500E6E3F
:103200000F6A0E500F10D8A408EF19F00AEF19F04A
:103210002AEF19F0D89010340A6E11340B6E123464
:103220000C6E13340D6E0A500B100C100D10D8A438
:103230001CEF19F01EEF19F024EF19F0000E076EC5
:10324000020E066E59EF19F0000E076E030E066EA1
:1032500059EF19F00E280F10D8A431EF19F033EF01
:1032600019F055EF19F010C00AF011C00BF012C0A0
:103270000CF013C00DF0090ED8900A360B360C3640
:103280000D36E82E3CEF19F00A500B100C100D1003
:10329000D8B44DEF19F050EF19F0010E51EF19F0BD
:1032A000000E066E076A59EF19F0000E076E040E45
:1032B000066E120006C00DF007C00EF008C00FF039
:1032C00009C010F00A06D8A00B060A2806E10B2850
:1032D000D8A46DEF19F06FEF19F07CEF19F0000E24
:1032E000076E000E066EC4EF19F00D4A0E2A0F4A43
:1032F000102A0A06D8A00B060DC0D9FF0EC0DAFFAF
:10330000DF50D8B486EF19F088EF19F0B3EF19F059
:103310000FC0F6FF10C0F7FF0800F5500009D8B441
:1033200094EF19F096EF19F0B3EF19F00A500B1063
:10333000D8B49DEF19F09FEF19F0B3EF19F00DC05D
:10334000D9FF0EC0DAFFDF500C6E0FC0F6FF10C0C1
:10335000F7FF0800F5500C18D8B4B1EF19F0B3EF2F
:1033600019F075EF19F00DC0D9FF0EC0DAFFDF506C
:103370000C6E0FC0F6FF10C0F7FF0800F5500C5C94
:10338000066E076AD8A00706120008500910D8B4C4
:10339000CCEF19F0CEEF19F0D7EF19F00850091063
:1033A000D8A4D5EF19F0D7EF19F0DCEF19F00650DB
:1033B0008EEC1EF029EF1AF020EE09F00850D92605
:1033C0000950DA22DE50DE10D8B4E9EF19F0EBEF45
:1033D00019F006EF1AF020EE09F00850D92609502E
:1033E000DA2210EE03F00850E1260950E222DE5006
:1033F000E65CE650800A0E6EDE50800A0E58D8B0A9
:1034000004EF1AF006EF1AF029EF1AF020EE03F09D
:103410000850D9260950DA22DECF0AF0DDCF0BF0B2
:1034200008C0D9FF09C0DAFFDECF0CF0DDCF0DF008
:103430000A500C24D96E0B500D20DA6E06C0DFFF47
:1034400020EE03F00850D9260950DA22DE2A000EB9
:10345000DD221200000E0B6E09BE33EF1AF031EFC1
:103460001AF039EF1AF0086C091ED8B0092A010EBB
:103470000B6E07BE40EF1AF03EEF1AF046EF1AF05F
:10348000066C071ED8B0072A010E0B1A000E0D6E2F
:10349000000E0C6E08500910D8B451EF1AF053EF1B
:1034A0001AF07BEF1AF0010E0A6E5BEF1AF0D8905B
:1034B000083609360A2A09AE60EF1AF062EF1AF0F0
:1034C00057EF1AF0D8900C360D360850065C0950AC
:1034D0000758D8A06EEF1AF070EF1AF075EF1AF0D7
:1034E0000850065E0950075A0C80D89009320832FD
:1034F0000A2E62EF1AF00B50D8B481EF1AF083EF66
:103500001AF087EF1AF00C6C0D1ED8B00D2A0CC003
:1035100006F00DC007F0120058A091EF1AF093EFDB
:103520001AF09DEF1AF018C00FF019C010F016C075
:1035300011F017C012F03FEC1DF01BBEA2EF1AF005
:10354000A4EF1AF0AAEF1AF01AC01FF01BC020F067
:10355000AEEF1AF0000E206E000E1F6E000E1E6EF3
:10356000000E1D6EC0EF1AF0000E076E200E066EE4
:1035700016C008F017C009F0C5EC19F01D4A1E2A44
:103580001F501D5C1E50800A1C6E2050800A1C5863
:10359000D8A0CDEF1AF0CFEF1AF0B4EF1AF058B070
:1035A000D4EF1AF0D6EF1AF0E0EF1AF018C00FF0CF
:1035B00019C010F016C011F017C012F03FEC1DF04A
:1035C00018C006F019C007F0B5EC1DF01F50062416
:1035D000166E20500720176E12000C6E0BA0F3EF32
:1035E0001AF0F5EF1AF0FAEF1AF00D5010090D6EFF
:1035F000FDEF1AF00D50EF0B0D6E0BA202EF1BF05A
:1036000004EF1BF009EF1BF00D5020090D6E0CEFBD
:103610001BF00D50DF0B0D6E0BA411EF1BF013EF21
:103620001BF018EF1BF00D5040090D6E1BEF1BF047
:103630000D50BF0B0D6E0BA620EF1BF022EF1BF001
:1036400027EF1BF00D5080090D6E2AEF1BF00D5077
:103650007F0B0D6E640EE82EFED70C04D8A433EF5A
:103660001BF035EF1BF03AEF1BF00D5001090D6E0A
:103670003DEF1BF00D50FE0B0D6E0D5004091EECBE
:103680001EF0030EE82EFED700F00D50FB0B1EECD3
:103690001EF01200000E0B6E07BE53EF1BF051EF31
:1036A0001BF059EF1BF0066C071ED8B0072A010E5D
:1036B0000B6E09BE60EF1BF05EEF1BF064EF1BF0BA
:1036C000086C091ED8B0092A08500910D8B46BEF4D
:1036D0001BF06DEF1BF091EF1BF0010E0A6E75EF02
:1036E0001BF0D890083609360A2A09AE7AEF1BF08B
:1036F0007CEF1BF071EF1BF00850065C0950075877
:10370000D8A085EF1BF087EF1BF08BEF1BF0085064
:10371000065E0950075AD890093208320A2E7CEF0B
:103720001BF00B50D8B497EF1BF099EF1BF09DEFF7
:103730001BF0066C071ED8B0072A06C006F007C0AB
:1037400007F01200000E06140E6E000E07140F6E26
:10375000800E0814106E7F0E0914116E0E500F109B
:1037600010101110D8A4B7EF1BF0B9EF1BF0C1EF88
:103770001BF0000E066E000E076E000E086E000EA7
:10378000096E000E0A140E6E000E0B140F6E800EE2
:103790000C14106E7F0E0D14116E0E500F101010C1
:1037A0001110D8A4D6EF1BF0D8EF1BF0E0EF1BF000
:1037B000000E0A6E000E0B6E000E0C6E000E0D6EEB
:1037C0000A5006180FE10B5007180CE10C500818AE
:1037D00009E10D500918D8B4F0EF1BF0F2EF1BF01F
:1037E000F5EF1BF0D890F6EF1BF0D8801200BCC0AC
:1037F00056F0BDC057F0000E0001E86F000EE76FF5
:1038000015EF1CF0BAC0A8F0BBC0A9F0560EAA6F05
:10381000000EAB6FBEC0ACF0BFC0ADF08CEC0CF0D6
:103820000001A851E727A951E82356C0F6FF57C069
:10383000F7FF0800F5500009D8A421EF1CF023EF92
:103840001CF002EF1CF0E7C0BAF0E8C0BBF01200B9
:1038500008C00CF009C00DF006C00EF007C00FF054
:103860000C500A6E0D500B6E0C4A0D2A0AC0F6FF62
:103870000BC0F7FFF86A0EC0D9FF0FC0DAFF0E4A7F
:103880000F2A070EF76403D00800F55005D0F6CFD5
:10389000E1FFF7CFE2FFE750DF6EDF50D8A453EF30
:1038A0001CF055EF1CF030EF1CF0120006009DA03C
:1038B0005CEF1CF05EEF1CF07EEF1CF09EA063EF4F
:1038C0001CF065EF1CF07EEF1CF08BB26AEF1CF071
:1038D0006DEF1CF0010E6EEF1CF0000EFF0A016E82
:1038E00001468B500118FD0B01188B6E060ECF6E32
:1038F000F90ECE6E9E900001F14BF22B5A92110000
:10390000C40E0001C86F000EC96FC0C0CAF0C1C0AC
:10391000CBF0000ECE6F000ECD6F000ED46F000EF8
:10392000D36FCA0EBA6F000EBB6FC2C0BCF0C3C06B
:10393000BDF0C80EBE6F000EBF6FF7EC1BF00001AC
:10394000CD51C025D96ECE51C121DA6E000EDF6E89
:103950001200010E0C6E200E06180710D8B4B3EF3B
:103960001CF0B5EF1CF0CEEF1CF0F70E086EFF0E4A
:10397000096E06C00AF007C00BF008500A2609506D
:103980000B220B5009E1050E0A5CD8A0CAEF1CF00F
:10399000CCEF1CF0CEEF1CF0000E0C6E0CC006F04D
:1039A000076A12000A6E0AC008F0D8900836D8904C
:1039B00008363C0E0816C250030B0810C26EC282B5
:1039C000C2B2E5EF1CF0E7EF1CF0E0EF1CF00D0ECB
:1039D000086EFC0EE82EFED7082EFCD7C450096EE8
:1039E000086AC3500824066E000E0920076E1200F4
:1039F000000E0001641B000E651B000E661B800E8E
:103A0000671B60C046F061C047F062C048F063C009
:103A100049F064C04AF065C04BF066C04CF067C026
:103A20004DF02CEC0AF046C060F047C061F048C091
:103A300062F049C063F01200BF0E0E6EFF0E0F6EF3
:103A40000CC010F00DC011F00E5010260F501122B6
:103A5000115007E11A0E105CD8B031EF1DF033EFB2
:103A60001DF03AEF1DF0200E0C100C6E0D500D6E77
:103A70003EEF1DF00CC00CF00DC00DF01200000E5A
:103A8000156E000E146E50EF1DF013C006F0076A9D
:103A900011C008F012C009F0C5EC19F0144A152A3B
:103AA00014500F24D96E15501020DA6EDF50136EAB
:103AB0001350D8A45EEF1DF060EF1DF045EF1DF030
:103AC0001200BF0E086EFF0E096E06C00AF007C096
:103AD0000BF008500A2609500B220B500AE11A0E6F
:103AE0000A5CD8A076EF1DF079EF1DF0010E7AEF99
:103AF0001DF0000E066E076A12000650071008102F
:103B00000910D8B486EF1DF088EF1DF090EF1DF07E
:103B1000000E061A000E071A000E081A800E091A67
:103B200006C006F007C007F008C008F009C009F099
:103B30001200D00E086EFF0E096E06C00AF007C014
:103B40000BF008500A2609500B220B500AE10A0E0E
:103B50000A5CD8A0AEEF1DF0B1EF1DF0010EB2EF80
:103B60001DF0000E066E076A120006C008F007C0BE
:103B700009F0BDEF1DF0064A072A06C0D9FF07C0AD
:103B8000DAFFDF50D8A4C7EF1DF0C9EF1DF0BBEF7F
:103B90001DF00850065C066E09500758076E1200AB
:103BA000086E06C007F0010E07160850FE0B07103E
:103BB000096E09C0C9FFC59AC5889E969EA6E3EF07
:103BC0001DF0E5EF1DF0DEEF1DF0120001EE00F03C
:103BD000640EEE6AE806FDE100EEDBF0220EEE6A0E
:103BE000E806FDE1596A586A5A905A92000EF86E3A
:103BF00000018BEF12F006500802F3CF0AF0F4CF69
:103C00000BF006500902F3500B2607500802F35040
:103C10000B260AC006F00BC007F01200C292C28049
:103C2000C19AC198C186C184C182C190C08EC09A18
:103C3000C088C086C084C082C09012000A6E79EC31
:103C40001EF0000E066E4E0ED0EC1DF00A50080954
:103C500049EC1EF070EC1EF01200D59ED59CD59A52
:103C6000D598D596D584D582D580480ED76EE40EEA
:103C7000D66ED58E12000F6E0E380F0B0B6E0F50D6
:103C8000EDEC1AF00E500F0B0B6E0F50EDEC1AF01E
:103C90001200066E06C0C9FFC59AC5889E969EA6EC
:103CA00054EF1EF056EF1EF04FEF1EF012009380FF
:103CB0009382C78EC68AC686C694C692C690770E71
:103CC000C86E000EC56E1200CD90CD8ECD92CD8AFD
:103CD000CD88CD96060ECF6EF90ECE6ECD80120039
:103CE000C584C5B476EF1EF078EF1EF071EF1EF0BC
:103CF0001200C580C5B07FEF1EF081EF1EF07AEF95
:103D00001EF01200D08EF1949F80F28EF28C120081
:0E3D10009D809E901200F28AF2941200120022
:020000040020DA
:08000000FFFFFFFFFFFFFFFF00
:020000040030CA
:0E000000040E181EFF8381FF0FC00FE00F409B
:00000001FF
